{
    "contractName": "Cntr",
    "abi": [
        {
            "inputs": [
                {
                    "internalType": "uint256",
                    "name": "new_pin",
                    "type": "uint256"
                },
                {
                    "internalType": "string",
                    "name": "newcity",
                    "type": "string"
                }
            ],
            "stateMutability": "nonpayable",
            "type": "constructor"
        },
        {
            "inputs": [],
            "name": "city",
            "outputs": [
                {
                    "internalType": "string",
                    "name": "",
                    "type": "string"
                }
            ],
            "stateMutability": "view",
            "type": "function"
        },
        {
            "inputs": [],
            "name": "pin",
            "outputs": [
                {
                    "internalType": "uint256",
                    "name": "",
                    "type": "uint256"
                }
            ],
            "stateMutability": "view",
            "type": "function"
        }
    ],
    "bytecode": "608060405234801561001057600080fd5b506040516103e53803806103e583398101604081905261002f916100fe565b6000829055805161004790600190602084019061004f565b505050610216565b82805461005b906101db565b90600052602060002090601f01602090048101928261007d57600085556100c3565b82601f1061009657805160ff19168380011785556100c3565b828001600101855582156100c3579182015b828111156100c35782518255916020019190600101906100a8565b506100cf9291506100d3565b5090565b5b808211156100cf57600081556001016100d4565b634e487b7160e01b600052604160045260246000fd5b6000806040838503121561011157600080fd5b8251602080850151919350906001600160401b038082111561013257600080fd5b818601915086601f83011261014657600080fd5b815181811115610158576101586100e8565b604051601f8201601f19908116603f01168101908382118183101715610180576101806100e8565b81604052828152898684870101111561019857600080fd5b600093505b828410156101ba578484018601518185018701529285019261019d565b828411156101cb5760008684830101525b8096505050505050509250929050565b600181811c908216806101ef57607f821691505b6020821081141561021057634e487b7160e01b600052602260045260246000fd5b50919050565b6101c0806102256000396000f3fe608060405234801561001057600080fd5b50600436106100365760003560e01c8063cf25b09f1461003b578063fd0160fe14610057575b600080fd5b61004460005481565b6040519081526020015b60405180910390f35b61005f61006c565b60405161004e91906100fa565b600180546100799061014f565b80601f01602080910402602001604051908101604052809291908181526020018280546100a59061014f565b80156100f25780601f106100c7576101008083540402835291602001916100f2565b820191906000526020600020905b8154815290600101906020018083116100d557829003601f168201915b505050505081565b600060208083528351808285015260005b818110156101275785810183015185820160400152820161010b565b81811115610139576000604083870101525b50601f01601f1916929092016040019392505050565b600181811c9082168061016357607f821691505b6020821081141561018457634e487b7160e01b600052602260045260246000fd5b5091905056fea2646970667358221220a0fd026ca920535e517de8935eec9786e5b22e335a401a632281e256a2bd573364736f6c634300080a0033",
    "sourcePath": "c:/Users/raman.shinde/Desktop/Crypto/solidity/constructor.sol",
    "compiler": {
        "name": "solc",
        "version": "0.8.10+commit.fc410830"
    },
    "functionHashes": {
        "city()": "fd0160fe",
        "pin()": "cf25b09f"
    },
    "gasEstimates": {
        "creation": {
            "codeDepositCost": "89600",
            "executionCost": "infinite",
            "totalCost": "infinite"
        },
        "external": {
            "city()": "infinite",
            "pin()": "2262"
        }
    }
}