{
    "contractName": "Demo",
    "abi": [
        {
            "inputs": [],
            "name": "local",
            "outputs": [
                {
                    "internalType": "uint256",
                    "name": "",
                    "type": "uint256"
                }
            ],
            "stateMutability": "pure",
            "type": "function"
        }
    ],
    "bytecode": "60c060405260036080819052621cdbdb60ea1b60a09081526100249160009190610037565b5034801561003157600080fd5b5061010b565b828054610043906100d0565b90600052602060002090601f01602090048101928261006557600085556100ab565b82601f1061007e57805160ff19168380011785556100ab565b828001600101855582156100ab579182015b828111156100ab578251825591602001919060010190610090565b506100b79291506100bb565b5090565b5b808211156100b757600081556001016100bc565b600181811c908216806100e457607f821691505b6020821081141561010557634e487b7160e01b600052602260045260246000fd5b50919050565b608f806101196000396000f3fe6080604052348015600f57600080fd5b506004361060285760003560e01c80630f166ad414602d575b600080fd5b60408051808201825260058152642930b6b0b760d91b6020918201528151600a81529151918290030190f3fea2646970667358221220d392081091cd0b1ac3613be8984ed1ea0ed192f63a220eb98f4a21ca12ea788e64736f6c634300080a0033",
    "sourcePath": "c:/Users/raman.shinde/Desktop/Crypto/solidity/local_var.sol",
    "compiler": {
        "name": "solc",
        "version": "0.8.10+commit.fc410830"
    },
    "functionHashes": {
        "local()": "0f166ad4"
    },
    "gasEstimates": {
        "creation": {
            "codeDepositCost": "28600",
            "executionCost": "infinite",
            "totalCost": "infinite"
        },
        "external": {
            "local()": "206"
        }
    }
}