{
    "contractName": "Func",
    "abi": [
        {
            "inputs": [],
            "name": "getage",
            "outputs": [
                {
                    "internalType": "uint256",
                    "name": "",
                    "type": "uint256"
                }
            ],
            "stateMutability": "view",
            "type": "function"
        },
        {
            "inputs": [],
            "name": "pin",
            "outputs": [
                {
                    "internalType": "uint256",
                    "name": "",
                    "type": "uint256"
                }
            ],
            "stateMutability": "view",
            "type": "function"
        },
        {
            "inputs": [
                {
                    "internalType": "uint256",
                    "name": "newage",
                    "type": "uint256"
                }
            ],
            "name": "setage",
            "outputs": [],
            "stateMutability": "nonpayable",
            "type": "function"
        }
    ],
    "bytecode": "608060405262064f4860005534801561001757600080fd5b5060bf806100266000396000f3fe6080604052348015600f57600080fd5b5060043610603c5760003560e01c80636e424d5a146041578063b3f2e471146053578063cf25b09f146069575b600080fd5b6051604c3660046071565b600155565b005b6001545b60405190815260200160405180910390f35b605760005481565b600060208284031215608257600080fd5b503591905056fea26469706673582212202002df6c23f79936d4061947bc195ae36c1a2b2140f08b07d1c4bb45d5c2ee2f64736f6c634300080a0033",
    "sourcePath": "c:/Users/raman.shinde/Desktop/Crypto/solidity/function.sol",
    "compiler": {
        "name": "solc",
        "version": "0.8.10+commit.fc410830"
    },
    "functionHashes": {
        "getage()": "b3f2e471",
        "pin()": "cf25b09f",
        "setage(uint256)": "6e424d5a"
    },
    "gasEstimates": {
        "creation": {
            "codeDepositCost": "38200",
            "executionCost": "22193",
            "totalCost": "60393"
        },
        "external": {
            "getage()": "2269",
            "pin()": "2305",
            "setage(uint256)": "22290"
        }
    }
}