{
    "contractName": "state",
    "abi": [
        {
            "inputs": [],
            "name": "age",
            "outputs": [
                {
                    "internalType": "uint256",
                    "name": "",
                    "type": "uint256"
                }
            ],
            "stateMutability": "view",
            "type": "function"
        },
        {
            "inputs": [],
            "name": "setAge",
            "outputs": [],
            "stateMutability": "nonpayable",
            "type": "function"
        }
    ],
    "bytecode": "6080604052600a60005534801561001557600080fd5b5060cb806100246000396000f3fe6080604052348015600f57600080fd5b506004361060325760003560e01c8063262a9dff146037578063457676ee146051575b600080fd5b603f60005481565b60405190815260200160405180910390f35b60576059565b005b600a600080828254606991906070565b9091555050565b60008219821115609057634e487b7160e01b600052601160045260246000fd5b50019056fea264697066735822122035493d302988758a96c7ce075cf3ea3f44908573e29dfa23ea4e6b26e3c0f88f64736f6c634300080a0033",
    "sourcePath": "c:/Users/raman.shinde/Desktop/Crypto/solidity/state_var.sol",
    "compiler": {
        "name": "solc",
        "version": "0.8.10+commit.fc410830"
    },
    "functionHashes": {
        "age()": "262a9dff",
        "setAge()": "457676ee"
    },
    "gasEstimates": {
        "creation": {
            "codeDepositCost": "40600",
            "executionCost": "22199",
            "totalCost": "62799"
        },
        "external": {
            "age()": "2261",
            "setAge()": "24439"
        }
    }
}